S01700004763634170706C69636174696F6E312E737265635B
S11300000C9438000C9455000C9455000C94550035
S11300100C9455000C9455000C9455000C94550008
S11300200C9455000C9455000C9455000C945500F8
S11300300C9455000C9455000C9455000C945500E8
S11300400C9455000C9455000C9455000C945500D8
S11300500C9455000C9455000C9455000C945500C8
S11300600C9455000C9455000C9455000C945500B8
S113007011241FBECFEFD4E0DEBFCDBF11E0A0E05E
S1130080B1E0E0E9F8E002C005900D92A030B107BC
S1130090D9F721E0A0E0B1E001C01D92A032B2077F
S11300A0E1F70E9441020C9446040C94000010BA3B
S11300B01CB818B880B38E7F80BB80B38D7F80BBA3
S11300C080B38F7780BB80B38F7B80BB80B3877F07
S11300D080BB80B3826080BB88B1806188B98CB1F9
S11300E081608CB98CB188608CB980B3806280BB2C
S11300F088B1816088B983E08BBB85E08ABB18BA7C
S113010017BA80E090E0A6E1B3E4809310019093E5
S11301101101A0931201B0931301089581110BC032
S11301208BB38F7C8BBB8DB18E7F8DB981B38F7D6B
S113013081BB17BA0895613071F49BB390629BBB85
S11301409BB39F7E9BBB87BB8DB18E7F8DB981B3E3
S1130150806281BB089561110AC09BB390639BBB0D
S113016087BB8DB181608DB981B38F7D81BB0895CB
S113017081110BC08BB38F738BBB8DB1877F8DB90E
S113018089B18E7F89B918BA0895613059F49BB347
S1130190906C9BBB88BB8DB188608DB989B18E7F13
S11301A089B9089561110DC09BB390689BBB9BB343
S11301B09F7B9BBB88BB8DB1877F8DB989B18160E3
S11301C089B9089560E08FEF0E948E0060E08FEFA0
S11301D00E94B8002FEF80E792E0215080409040C9
S11301E0E1F700C0000061E08FEF0E948E0061E043
S11301F08FEF0E94B8002FEF80E792E021508040FB
S11302009040E1F700C0000061E080E00E948E00B1
S113021061E080E00E94B8002FEF80E792E0215077
S113022080409040E1F700C0000008958FB18FB185
S11302308FB18FB18FB18FB18DB18E7F8DB981B3F5
S11302408F7D81BB8DB1877F8DB989B18E7F89B94F
S113025091B382E0892781BB99B180E1892789B96B
S113026008954F925F926F927F928F929F92AF9276
S1130270BF92CF92DF92EF92FF926B017C012091AB
S113028008013091090140910A0150910B010E942B
S1130290B6024B015C0160930001709301018093ED
S11302A002019093030120911C0130911D014091A2
S11302B01E0150911F01C701B6010E94B7022B0114
S11302C03C0160931C0170931D0180931E01909367
S11302D01F0120E030E040EA50E4C701B6010E946B
S11302E0D1036B017C0120E030E040E05FE3C30117
S11302F0B2010E94D1039B01AC01C701B6010E9467
S1130300B7026B017C012DEC3CEC4CE45DE3C501D0
S1130310B4010E94D1039B01AC01C701B6010E9444
S1130320B702FF90EF90DF90CF90BF90AF909F9077
S11303308F907F906F905F904F9008954F925F924F
S11303406F927F928F929F92AF92BF92CF92DF92E1
S1130350EF92FF92C0901001D0901101E090120131
S1130360F0901301409018015090190160901A0107
S113037070901B01A3019201C701B6010E94B7024C
S11303804B015C0160930C0170930D0180930E018D
S113039090930F01A3019201C701B6010E94B60216
S11303A06B017C0160930401709305018093060145
S11303B09093070120E030E0A901C501B4010E9437
S11303C02303882344F410920C0110920D0110921F
S11303D00E0110920F0120E030E0A901C701B6011F
S11303E00E942303882344F410920401109205010F
S11303F0109206011092070160910C0170910D0199
S113040080910E0190910F0120E030E04FE753E41A
S11304100E94CC03181664F480E090E0AFE7B3E4E4
S113042080930C0190930D01A0930E01B0930F01E2
S1130430609104017091050180910601909107017A
S113044020E030E04FE753E40E94CC03181664F434
S113045080E090E0AFE7B3E480930401909305015A
S1130460A0930601B0930701FF90EF90DF90CF9027
S1130470BF90AF909F908F907F906F905F904F90C0
S113048008950E9457000E94E20081B3826081BBFC
S113049089B1806189B980E090E01CC029B12F7EC8
S11304A029B921B32D7F21BB2FEF30E742E0215042
S11304B030404040E1F700C0000021B3226021BB7E
S11304C02FEF30E742E0215030404040E1F700C0D8
S11304D0000001968A3091050CF381B3826081BBE0
S11304E089B1806189B90E941601609314017093E7
S11304F0150180931601909317010E9431016093B6
S113050018017093190180931A0190931B010E94A2
S11305109E0160910C0170910D0180910E019091EA
S11305200F010E942803862F60E00E948E006091D4
S113053004017091050180910601909107010E94C8
S11305402803862F60E00E94B800809114019091E6
S11305501501A0911601B0911701809308019093A1
S11305600901A0930A01B0930B01B7CF5058BB27E0
S1130570AA270E94CE020C9492030E94840338F0AE
S11305800E948B0320F039F49F3F19F426F40C9455
S113059081030EF4E095E7FB0C947B03E92F0E94A2
S11305A0A30358F3BA17620773078407950720F06B
S11305B079F4A6F50C94C5030EF4E0950B2EBA2F2E
S11305C0A02D0B01B90190010C01CA01A001112455
S11305D0FF27591B99F0593F50F4503E68F11A1601
S11305E0F040A22F232F342F4427585FF3CF469592
S11305F037952795A795F0405395C9F77EF41F16B4
S1130600BA0B620B730B840BBAF09150A1F0FF0F7D
S1130610BB1F661F771F881FC2F70EC0BA0F621F69
S1130620731F841F48F4879577956795B795F79559
S11306309E3F08F0B0CF9395880F08F09927EE0FEE
S11306409795879508950E94570308F481E00895CB
S11306500E94AB0388F09F5798F0B92F9927B751A0
S1130660B0F0E1F0660F771F881F991F1AF0BA9552
S1130670C9F714C0B13091F00E94C503B1E00895E8
S11306800C94C503672F782F8827B85F39F0B93FDA
S1130690CCF3869577956795B395D9F73EF4909505
S11306A08095709561957F4F8F4F9F4F0895990F57
S11306B00008550FAA0BE0E8FEEF16161706E80728
S11306C0F907C0F012161306E407F50798F0621B49
S11306D0730B840B950B39F40A2661F0232B242B1E
S11306E0252B21F408950A2609F4A140A6958FEF3D
S11306F0811D811D089597F99F6780E870E060E08F
S113070008959FEF80EC089500240A9416161706A6
S113071018060906089500240A94121613061406EE
S113072005060895092E0394000C11F4882352F051
S1130730BB0F40F4BF2B11F460FF04C06F5F7F4F09
S11307408F4F9F4F089557FD9058440F551F59F0F0
S11307505F3F71F04795880F97FB991F61F09F3FAA
S113076079F087950895121613061406551FF2CFD3
S11307704695F1DF08C0161617061806991FF1CF23
S113078086957105610508940895E894BB2766274A
S11307907727CB0197F908950E94570308F48FEF48
S11307A008950E94E3030C9492030E94840338F09A
S11307B00E948B0320F0952311F00C947B030C947E
S11307C081030C94C6030E94A30378F39923C9F30D
S11307D05523B9F3950F50E0551FAA27EE27FF279D
S11307E0BB2700240894679520F4E20FF31FB41F7D
S11307F00A1E220F331F441FAA1F6695A9F7779577
S113080030F4F30FB41F0A1E121E08F46395330F5D
S1130810441FAA1F221F769599F7879520F4B40FD9
S11308200A1E121E631F440FAA1F221F331F869520
S1130830A9F7862F712D602D11249F5750409AF0EF
S1130840F1F088234AF0EE0FFF1FBB1F661F771FCE
S1130850881F91505040A9F79E3F510580F00C9499
S11308607B030C94C6035F3FE4F3983ED4F3869570
S113087077956795B795F795E7959F5FC1F7FE2B39
S1130880880F911D9695879597F90895F894FFCF51
S9030000FC
